:100000000C942D010C9455010C9455010C94550140
:100010000C9455010C9455010C9455010C94550108
:100020000C9455010C9455010C9468070C94D70757
:100030000C9455010C9455010C9455010C945501E8
:100040000C9455010C9455010C9455010C945501D8
:100050000C9455010C9455010C9455010C94090A0B
:100060000C9455010C9455010C9455010C945501B8
:100070000C9455010C9455010C9455010C945501A8
:100080000C9455010C9455010C9455010C94550198
:100090000C9455010C9455010C9455010C94550188
:1000A0000C9455010C9455010C945501000000006E
:1000B000000000002A2B28000000000000000000C3
:1000C0000000000000000000000000002C9EB4A012
:1000D000A1A2A434A6A7A5AE362D3738271E1F200F
:1000E000212223242526B333B62EB7B89F848586D4
:1000F0008788898A8B8C8D8E8F9091929394959618
:100100009798999A9B9C9D2F3130A3AD3504050695
:100110000708090A0B0C0D0E0F10111213141516F7
:100120001718191A1B1C1DAFB1B0B5000000000054
:10013000240027002A002D003000000000002500C8
:1001400028002B002E003100080B000202020000E4
:10015000090400000102020000052400100105242A
:10016000010101042402060524060001070581039C
:1001700010004009040100020A0000000705020205
:100180004000000705830240000004030904120137
:100190000002EF0201404123368000010102030109
:1001A00041726475696E6F204C4C430041726475F6
:1001B000696E6F204C656F6E6172646F00000000A5
:1001C000002300260029002C002F0004040404044E
:1001D00003040502020202040302020202060606EA
:1001E0000606060404020202040404080201104088
:1001F0008040102040804080080204018040201090
:100200000201108010204040200000000200090F71
:100210000000030401000C000000000000000000CA
:10022000000000000000000005010906A101850290
:10023000050719E029E715002501750195088102D8
:100240009501750881039506750815002573050746
:10025000190029738100C000530A11241FBECFEF7B
:10026000DAE0DEBFCDBF12E0A0E0B1E0ECE4FBE1FC
:1002700002C005900D92A03BB107D9F724E0A0EB96
:10028000B2E001C01D92A83DB207E1F711E0CDE256
:10029000D1E004C02197FE010E949E0DCC32D1070F
:1002A000C9F70E94E50A0C94A40D0C940000CF93AA
:1002B000DF93FC0181819091A904482F490F5527B4
:1002C000551F483051059CF5A281B381109709F55F
:1002D00025EA34E03383228320812093A70480938E
:1002E000A8048091AA04820F80832091AB04A22FDE
:1002F000B091AC048A2F821B8917E8F481813D916B
:10030000C82FD0E0C45FDE4F38838F5F8183F2CF88
:10031000D90118962D913C91199721153105C1F7F6
:1003200025EA34E019963C932E931897D5CF80E0B8
:10033000DF91CF91089581E0FBCFFC0180915404BF
:10034000882311F13FB7F89482E08093E90020916F
:10035000F200822F90E01816190614F481E090E064
:10036000882339F0289844E6409353044091F100E3
:100370004083222339F02091F200211103C02BE6A3
:100380002093E8003FBF08958FEF9FEF08954091BD
:10039000C3025091C4022091C1023091C20242179F
:1003A0005307B4F49091E8009570E1F39091E80060
:1003B00092FD19C08093F1008091C3029091C40214
:1003C00001968F739927892B19F48EEF8093E8009B
:1003D0008091C3029091C40201969093C4028093CD
:1003E000C30281E0089580E00895EF92FF920F9399
:1003F0001F93CF93DF93F82E192FE62E042F81E061
:10040000860F880F0E94C70183E00E94C701CF2D8D
:10041000D12FEC0EFD2EF11CCE15DF05B9F007FF34
:1004200013C0FE0184910E94C701182F80E00E9432
:10043000C701812321968111EFCFDF91CF911F91C9
:100440000F91FF90EF9008958881EDCF81E0F5CF77
:10045000DF92EF92FF920F931F93CF93DF93D82EEB
:100460008A01EB017B01E40EF51ECE15DF0559F084
:10047000D7FE12C0FE0184910E94C701219681110E
:10048000F4CF0FEF1FEFC801DF91CF911F910F91B4
:10049000FF90EF90DF9008958881EECF2FB7F8940A
:1004A00087708093E9009091E800892F807295FF12
:1004B00004C09091F20080E4891B2FBF0895615021
:1004C00030F02091F100FC0120830196F8CF2898AC
:1004D00084E68093530408958091B90281110DC080
:1004E00082E08093B50284E08093B6021092B80255
:1004F0001092B70281E08093B90285EB92E00895F3
:100500000F931F93CF93DF931F92CDB7DEB782E097
:10051000898342E450E068E471E080E80E942802A8
:100520000E946C02DC0112960D911C9101151105BF
:1005300089F0D801ED91FC910280F381E02DBE019C
:100540006F5F7F4FC801099597FD04C0F8010085D2
:100550001185ECCF89810F90DF91CF911F910F9181
:100560000895CF93DF931F92CDB7DEB76983DC0187
:10057000ED91FC910280F381E02D41E050E0BE015D
:100580006F5F7F4F09950F90DF91CF91089583E0C2
:100590008093E9008091F200882319F08AE3809328
:1005A000E800089583E00E944E0290E00895CF9302
:1005B000DF931F92CDB7DEB7FC018485958597FD4B
:1005C00008C02FEF3FEF358724870F90DF91CF9141
:1005D0000895CE0101960E949D01019719F4898129
:1005E00090E0F3CF8FEF9FEFF0CF0F931F93CF9358
:1005F000DF931F92CDB7DEB78C01FC018485958512
:1006000097FF0BC0CE0101960E949D01019771F4E6
:10061000898190E0F80195878487F8018485958524
:100620000F90DF91CF911F910F9108958FEF9FEF62
:10063000F1CFFC018485958597FD0BC09FB7F89499
:1006400082E08093E9008091F2009FBF90E00196E4
:1006500008959FB7F89482E08093E9008091F200BA
:100660009FBF90E0089581508F3008F047C0E82F79
:10067000F0E0E35CFC4F0C949E0D5A035E034C03C8
:10068000520356037E037E037E03610367036B03FD
:100690006F0375037E037903809180008F778093C9
:1006A00080000895809180008F7DF9CF8091800037
:1006B000877FF5CF84B58F7784BD089584B58F7D0E
:1006C000FBCF809190008F77809390000895809168
:1006D00090008F7DF9CF80919000877FF5CF80913A
:1006E000C0008F778093C00008958091C0008F7DF7
:1006F000F9CF8091C200877F8093C20008951F9335
:10070000CF93DF93282F30E0F901E75FFD4F84910D
:10071000F901E651FE4FD491F901E553FE4FC49122
:10072000CC23A9F0162F81110E943303EC2FF0E0A7
:10073000EE0FFF1FE65CFE4FA591B4918FB7F894C2
:10074000EC91111108C0D095DE23DC938FBFDF91AF
:10075000CF911F910895DE2BF8CFCF93DF9390E0D8
:10076000FC01E651FE4F249185539E4FFC0184917C
:100770008823C9F090E0880F991FFC01E45DFE4FCB
:10078000A591B491FC01E65CFE4FC591D491611135
:100790000DC09FB7F8948C91209582238C9388810B
:1007A000282328839FBFDF91CF910895623051F4B1
:1007B0009FB7F8943C91822F809583238C93E88196
:1007C0002E2BEFCF8FB7F894EC912E2B2C938FBF5D
:1007D000EACF3FB7F8948091B1029091B202A09114
:1007E000B302B091B40226B5A89B05C02F3F19F003
:1007F0000196A11DB11D3FBFBA2FA92F982F8827A1
:10080000BC01CD01620F711D811D911D42E0660F7B
:10081000771F881F991F4A95D1F70895CF92DF92CD
:10082000EF92FF920E94E9036B017C010E94E903B1
:100830006C197D098E099F09683E734081059105F9
:10084000A8F3FF90EF90DF90CF9008957F928F9262
:100850009F92AF92BF92CF92DF92EF92FF920F934F
:100860001F93CF93DF93C82E8B017A01809154049C
:10087000811110C08FEF9FEFDF91CF911F910F91EA
:10088000FF90EF90DF90CF90BF90AF909F908F90B0
:100890007F9008958091C70280FF05C08091E0009D
:1008A00082608093E000CE2DDF2DD12C8AEFB82E10
:1008B0008C2D8770982E8C2D8072882E8C2D8074B4
:1008C000782E9AE3A92E209719F4DD2009F44EC062
:1008D0008C2D0E944E02811106C0BA94BB2051F2A9
:1008E0000E940E04F0CF8C171D0611F00CF08C2F17
:1008F0009FB7F8949092E9002091E80025FD02C08E
:100900009FBFE1CF282F30E0C21BD30B882029F0F6
:100910008150A0F01092F100FBCFF801C7FC0AC093
:10092000815050F041914093F100FACF44914093AF
:10093000F10031968150D0F7020F131FDD2021F016
:10094000A092E800D12CDCCF8091E80085FD07C0A3
:10095000A092E800DD24D394209791F2F3CF209762
:1009600079F6772069F2A092E800CACF5D9884E614
:100970008093C602C70180CFEF92FF921F93CF935F
:10098000DF931F92CDB7DEB77C018091B604811151
:100990002AC011E01093A9041093AA048FEA94E0EE
:1009A0009093AC048093AB041092AE041092AD040B
:1009B00081E192E09093A6048093A5041092B10483
:1009C0001092B0041092B3041092B2041093B404C5
:1009D0001093B50481EC8093AF040E946C020E94D6
:1009E00057011093B60482E0898341E050E0BE01D4
:1009F0006F5F7F4F8091A8040E94260497FD08C076
:100A00008091A80448E050E0B70180640E94260469
:100A10000F90DF91CF911F91FF90EF900895CF93AA
:100A2000DF93EC0180910B01882331F083E00E9479
:100A300026041816190634F081E090E09B838A831F
:100A400080E090E0DF91CF910895DC01FB011296E8
:100A50002C911297848195812817190641F4918170
:100A60008081813A31F49D7F81E0913009F080E00E
:100A700008958132E1F79B3029F482811F968C938F
:100A800081E008959A3099F7828150968C93F8CF3F
:100A9000DC01FB0188E4808389E4818384E4828330
:100AA0001D969C911D979F709F5B93831D968D91C2
:100AB0009C9124E0969587952A95E1F78F708F5B3E
:100AC000848385E00895EF92FF920F931F93CF9355
:100AD000DF93FB012081213871F52381223259F502
:100AE000DC0112964C91248135814217130619F5C9
:100AF000EC010B851C85F12CE12C0115110589F009
:100B0000F801448155816281738180E80E94280246
:100B10008F3F980749F0E80EF91ED8010D911C91FE
:100B2000ECCF81E08F87C701DF91CF911F910F91AB
:100B3000FF90EF90089590E080E0F6CFCF93DF93A1
:100B4000CDB7DEB769970FB6F894DEBF0FBECDBF45
:100B5000FC01DB018C918F5F8C939E012D5F3F4FD9
:100B60008DE0D9011D928A95E9F729E0298384E077
:100B70008A8391E09D8383E08E832A8721E22B87FD
:100B80009C879D879F8722E2288B27E02B8B25E07F
:100B90002C8B8E8B20E430E0388F2F8B998F8281C5
:100BA0008B8395858685998B8A8B838180688D8BD5
:100BB00049E150E0BE016F5F7F4F80E00E94280254
:100BC00069960FB6F894DEBF0FBECDBFDF91CF910F
:100BD0000895CF92DF92EF92FF920F931F93CF93DE
:100BE000DF936C01EB017B01E40EF51E10E000E0E9
:100BF000CE15DF0581F069916D30D1F3D601ED910D
:100C0000FC910190F081E02DC6010995892B19F026
:100C10000F5F1F4FEDCFC801DF91CF911F910F9153
:100C2000FF90EF90DF90CF900895DC016838A0F03E
:100C30006858FD0186E0662321F09681961301C075
:100C40001682815031968111F6CFCD0104960E9413
:100C5000BC0481E090E00895E62FF0E067FF12C049
:100C6000E058F10981E090E001C0880FEA95EAF7C9
:100C7000809514969C911497892314968C931497BD
:100C800060E0D7CFE455FF4F6491662359F067FFCA
:100C9000D0CF14968C9114978D7F14968C931497C3
:100CA0006F77C7CF90E080E00895DC01683888F165
:100CB000685816968C911697861721F117968C9185
:100CC00017978617F9F018968C9118978617D1F018
:100CD00019968C9119978617A9F01A968C911A97E4
:100CE000861781F01B968C911B97861759F0FD0192
:100CF000369690E080E02191211139C08A0F9B1F28
:100D0000FC016683CD0104960E94BC0481E090E062
:100D10000895E62FF0E067FF11C0E058F10921E0E7
:100D200030E001C0220FEA95EAF714968C911497EF
:100D3000822B14968C93149760E0BBCFE455FF4F41
:100D40006491611109C081E090E013969C938E93A9
:100D5000129790E080E0089567FFABCF14968C91D6
:100D60001497826014968C9314976F77A2CF019694
:100D70008630910509F0BFCFE6CFEF92FF921F9327
:100D8000CF93DF93EC01162F0E9455067C01612F53
:100D9000CE010E941506C7019927DF91CF911F91BF
:100DA000FF90EF900895089590E080E00895FC0191
:100DB00001900020E9F73197AF01481B590BBC01A6
:100DC00085E594E00C940F058F929F92AF92BF92AD
:100DD0000F931F93CF93DF93CDB7DEB7A1970FB6D5
:100DE000F894DEBF0FBECDBF19A2423008F44AE02E
:100DF0008E010F5D1F4F842E912CB12CA12CA501CB
:100E000094010E947C0DE62FB901CA01EA30F4F486
:100E1000E05DD801EE938D01232B242B252B79F750
:100E200090E080E0109719F0CD010E94D706A196BE
:100E30000FB6F894DEBF0FBECDBFDF91CF911F91EB
:100E40000F91BF90AF909F908F900895E95CE1CF94
:100E5000CF93DF930E94D706EC0185E292E00E94D7
:100E6000D7068C0F9D1FDF91CF910895CF92DF920F
:100E7000EF92FF92CF93DF936C01990FEE08FF087A
:100E8000F7FE1FC06DE285E594E00E94B102EC011F
:100E900066277727CB016C197D098E099F094AE0E7
:100EA0000E94E406C80FD91F85E292E00E94D7068F
:100EB0008C0F9D1FDF91CF91FF90EF90DF90CF902F
:100EC00008954AE0C701B6010E94E406EC01ECCFA8
:100ED0001F920F920FB60F9211248F939F938091C0
:100EE000E1009091E100937F9093E10083FF0FC0B8
:100EF0001092E90091E09093EB001092EC0092E3E5
:100F00009093ED001092540498E09093F00082FFCB
:100F100022C093E09093E9009091F200992319F098
:100F20009AE39093E8009091C602992341F0909142
:100F3000C60291509093C602911101C05D9A9091A2
:100F40005304992341F0909153049150909353048A
:100F5000911101C0289A84FF18C08091E2008E7E12
:100F600081608093E2008091E1008F7E8093E100B8
:100F70008091C7028E7E80618093C7029F918F917E
:100F80000F900FBE0F901F90189580FFF7CF8091A4
:100F9000E2008E7E80618093E2008091E1008E7E8F
:100FA0008093E1008091C7028E7E8160E5CF1F9221
:100FB0000F920FB60F921124CF92DF92EF92FF9211
:100FC0000F931F932F933F934F935F936F937F9351
:100FD0008F939F93AF93BF93EF93FF93CF93DF9341
:100FE000CDB7DEB76C97DEBFCDBF1092E900809120
:100FF000E80083FF25C068E0CE0145960E945F02AD
:1010000082EF8093E8008D8987FF39C09091E800D6
:1010100090FFFCCF982F907609F034C19E894F89BC
:10102000588D2F89F88C911131C0803861F58091ED
:10103000C8028093F1001092F1008EEF8093E800D7
:101040006C960FB6F894DEBF0FBECDBFDF91CF9187
:10105000FF91EF91BF91AF919F918F917F916F9190
:101060005F914F913F912F911F910F91FF90EF90C2
:10107000DF90CF900F900FBE0F901F9018959EEFAE
:101080009093E800C7CF1092F100D5CF913059F47A
:101090008111D3CF4130510581F68091C8028D7FF7
:1010A0008093C802CACF933049F48111C6CF413032
:1010B000510519F68091C8028260F2CF953041F453
:1010C0008091E80080FFFCCF20682093E300B5CF3B
:1010D000963009F0A9C00B8D1C8D22E01092E9001A
:1010E0001092C4021092C302F2122EC01092C202D9
:1010F0001092C1020E9480021F8299E09983FA82B5
:1011000091E09E8390EA98879AEF99872091C30295
:101110003091C402275F3F4F3C832B838D83109215
:10112000E9001092C4021092C3021093C20200930D
:10113000C10249E050E0BE016F5F7F4F80E00E9436
:1011400028020E94800279CF1093C2020093C1024C
:101150000E946C02DC0112960D911C910115110583
:1011600009F451C1D801ED91FC910480F581E02D85
:10117000BE016B5E7F4FC8010995009709F03EC123
:10118000F80100851185EACFF3E0FF120EC08F89C8
:10119000882309F440C0823061F440E860E18CEAC1
:1011A00091E00E94F501811148CF81E28093EB002C
:1011B00047CF813029F440E86BE080EA91E0F1CF3D
:1011C000833099F70E946C02DC011296ED90FC903E
:1011D0008E010F5F1F4F6801E114F10479F0D70110
:1011E000ED91FC910680F781E02DB801C7010995CA
:1011F000080F111DF701E084F184EECFD8011C9295
:10120000F60101900020E9F73197BF016C197D09C3
:1012100040E0C601C6CF6AE871E0FB01449150E0AE
:1012200080E80E94280209CF973009F4BECF983099
:1012300021F481E08093F10000CF993009F0FDCED8
:10124000837009F0B2CFEDE0F1E081E031E096E3A8
:101250002191222371F08093E9003093EB00DF01AC
:1012600011972C912093EC009093ED008F5F8730C5
:1012700079F78EE78093EA001092EA008F898093D5
:101280005404DBCE8B8D9C8D1092E9001092C40229
:101290001092C3029093C2028093C102898D811182
:1012A00092C08E899D89913A49F4813209F07DCFAF
:1012B00047E050E064E071E080E0B3CF913209F0A4
:1012C00074CF833269F48F89988DB0E0A0E0809369
:1012D000000190930101A0930201B0930301ADCEF0
:1012E000803269F48091E80082FFFCCF67E084E0FF
:1012F00091E00E945F028BEF8093E8009ECE8232E5
:1013000009F09BCE8F8980930B01EEEFFFE785916B
:1013100094918B3F9C4D51F1E0E0F8E08091040105
:1013200090910501A0910601B0910701803B944086
:10133000A105B105F1F480910B0180FD1AC0EE3FCB
:101340008AE0F80789F587E797E7918380838091A2
:1013500060008093C50288E19BE00FB6F894A895E1
:10136000809360000FBE9093600067CEEEEFFAE0CE
:10137000D5CF808191818737974709F05ECEA895B8
:10138000809160008861809360008091C5028093A5
:101390006000EE3F2AE0F20789F08091FE0A90910A
:1013A000FF0A9183808349CE808191818737980796
:1013B00051F29093FF0A8093FE0AC5CF1092FF0A64
:1013C0001092FE0A3ACE0E946C02DC0112960D9138
:1013D0001C910115110509F4E8CED801ED91FC919D
:1013E0000190F081E02DBE016B5E7F4FC801099531
:1013F000811123CEF80100851185EBCF181619064F
:101400000CF41BCED2CEF1E0FF12BECE6EE871E03E
:1014100004CF1F920F920FB60F9211242F933F9378
:101420008F939F93AF93BF938091C9029091CA020B
:10143000A091CB02B091CC023091B00223E0230FF7
:101440002D3758F50196A11DB11D2093B002809350
:10145000C9029093CA02A093CB02B093CC028091B0
:10146000B1029091B202A091B302B091B402019680
:10147000A11DB11D8093B1029093B202A093B3025B
:10148000B093B402BF91AF919F918F913F912F91F3
:101490000F900FBE0F901F90189526E8230F02960D
:1014A000A11DB11DD2CFCF931092580410925704B2
:1014B00088EE93E0A0E0B0E08093590490935A0442
:1014C000A0935B04B0935C048FEF91E0909356047B
:1014D000809355048FEF9FEF909362048093610493
:1014E0001092CF041092CE048DE192E09093CD043F
:1014F0008093CC048091C404811113C01092BF0466
:101500001092BE0488E292E09093C1048093C004DC
:101510008FE290E09093C3048093C20481E08093B3
:10152000C4048091B60481112AC0C1E0C093A9040B
:10153000C093AA048FEA94E09093AC048093AB0428
:101540001092AE041092AD0481E192E09093A60453
:101550008093A5041092B1041092B0041092B304C9
:101560001092B204C093B404C093B50481EC80938C
:10157000AF040E946C020E945701C093B604E09130
:10158000B004F091B1043097B9F48EEB94E09093ED
:10159000B1048093B0048091B2049091B30420917F
:1015A000C2043091C304820F931F9093B3048093BD
:1015B000B204CF910895FC01808191810097D9F701
:1015C0008EEB94E091838083E6CFCF93DF93CDB70A
:1015D000DEB729970FB6F894DEBF0FBECDBF789463
:1015E00084B5826084BD84B5816084BD85B5826028
:1015F00085BD85B5816085BD80916E0081608093D9
:101600006E00109281008091810082608093810041
:101610008091810081608093810080918000816051
:1016200080938000809191008260809391008091EE
:1016300091008160809391008091900081608093FF
:1016400090008091C10084608093C1008091C100AE
:1016500082608093C1008091C10081608093C1004D
:101660008091C30081608093C3008091C00082603C
:101670008093C0008091C20081608093C2008091FD
:101680007A00846080937A0080917A0082608093EF
:101690007A0080917A00816080937A0080917A004C
:1016A000806880937A00109254041092C8021092BD
:1016B000C7028091D70081608093D70080EA809331
:1016C000D80089B5806189BD89B5826089BD09B4BA
:1016D00000FEFDCF0E940E048091D8008F7C8061B7
:1016E0008093D8008091E000807F8093E00080911B
:1016F000E1008E7E8093E1008DE08093E200559AB8
:10170000209A10924F04109250041092510410929B
:10171000520481E090E090934E0480934D048FEF4B
:101720009FEF909362048093610488E292E00E94AC
:10173000280761E08BE00E94AD035BEE852E51E04F
:10174000952EF4018081F2E08F0E911C60E00E94E2
:10175000AD032BEF31E02815390599F783ED91E0C2
:101760009A838983E981FA8180813296FA83E983B9
:1017700060E00E94AD0329813A812B5E314091F7F0
:101780008FB7F8944091C9025091CA026091CB0280
:101790007091CC028FBF80914F0490915004A09122
:1017A0005104B0915204481B590B6A0B7B0B80917A
:1017B0004D0490914E04B0E0A0E0481759076A0725
:1017C0007B0708F430C123E1422E21E0522E3DE890
:1017D000632E33E0732E630152014BEEE42E41E0A1
:1017E000F42E10E000E0F7012080F2E0EF0EF11C93
:1017F00061E0822D0E94AD0360E0822D0E947F0394
:1018000023ED31E03C832B8319861886EB81FC8124
:1018100021913191FC83EB833A83298362E08981B2
:101820000E94AD03E885F985EA0DFB1D8081918159
:10183000892B69F129813A813327F901E75FFD4F4F
:101840008491F901E651FE4F94919F83F901E5538C
:10185000FE4F3490E885F985EC0DFD1DFE83ED8388
:10186000332009F4E8C081110E943303E32DF0E036
:10187000EE0FFF1FE354FE4FA591B491EC91FF8151
:10188000EF2309F4D8C0ED81FE811182108260E05F
:1018900089810E94AD0388859985029699878887FA
:1018A000489709F0B3CF60E0822D0E94AD0398E124
:1018B000A90EB11CE8E1CE0ED11C8E149F0409F0D4
:1018C00092CF60E00115110509F061E08BE00E9404
:1018D0007F038FE292E00E94D706C8010E9436077C
:1018E0008DECA82E82E0B82E1A821982D12CC12C40
:1018F00010E000E0F201EC0DFD1DE080F180E1144C
:10190000F10409F457C0F301EC0DFD1D2081318174
:10191000F501EC0DFD1D80819181821793070CF07C
:10192000C3C08BE392E00E94D70640E1B701FF0CF1
:10193000880B990B0E94E4068DE992E00E9428072B
:1019400029813A812230310509F07EC00430110529
:1019500009F0A8C08EE392E00E94280780E592E09B
:101960000E94D7068091990390919A030E943607AE
:101970008BE592E00E94D706809143049091440445
:101980000E9436078091990390919A0318161906C0
:1019900044F0809143049091440462EB18161906B8
:1019A0002CF486E692E00E94280764ED8CEC94E02B
:1019B0000E9455060F5F1F4F32E0C30ED11C0C3042
:1019C000110509F097CF89819A8101969A838983BD
:1019D00098E1690E711CE8E1AE0EB11CF8E14F0E02
:1019E000511C29813A812830310509F07FCF80ECE4
:1019F000EDE8F3E0ADECB2E001900D928A95E1F7ED
:101A00002FB7F8948091C9029091CA02A091CB029D
:101A1000B091CC022FBF80934F0490935004A093B9
:101A20005104B093520480E090E0892B09F4A8CED1
:101A30000E940000A5CE21E030E0ED81FE813183DF
:101A400020830F5F1F4F23CF89819A81892B19F53E
:101A50000630110539F58CE792E00E942807809145
:101A6000C5039091C60318161906E4F480919903F2
:101A700090919A03181619060CF09CCF809143049C
:101A800090914404181619060CF094CF83E992E063
:101A90000E94280707C0E981FA81379719F40730B7
:101AA0001105C9F26E2D82CF281739070CF082CFAD
:101AB0008BE392E00E94D70640E1B701FF0C880B50
:101AC000990B0E94E40686EA92E00E942807298189
:101AD0003A812230310571F40430110559F464ED76
:101AE0008CEC94E00E94150662EB8CEC94E00E9472
:101AF000150660CF6E2DF9CFA1E21A2EAA1BBB1BD3
:101B0000FD010DC0AA1FBB1FEE1FFF1FA217B307C9
:101B1000E407F50720F0A21BB30BE40BF50B661FDF
:101B2000771F881F991F1A9469F7609570958095A3
:101B300090959B01AC01BD01CF010895EE0FFF1FF1
:0C1B40000590F491E02D0994F894FFCF7B
:101B4C00FFFFFFFF00E100000000000000C18081EA
:101B5C0000000000002000DA002C00D800D7008123
:101B6C0000000000000000000000003100320033D3
:101B7C0000340035003600000000000000000000BA
:101B8C000000003700380039003000B20027000098
:101B9C0000000000000000000000007100770065EC
:101BAC0000720074007900000000000000000000CA
:101BBC0000B100750069006F0070006C00B000008F
:101BCC000000000000000082000000B30061007300
:101BDC000064006600670000000000800000000048
:101BEC0000000068006A006B006D002E00D9000038
:101BFC0000000000008600000000007A00780063FE
:101C0C0000760062006E00000085000000000000FD
:101C1C0000000013000A000900080006000C000474
:101C2C00001E000300010000000200160014000555
:101C3C00000D00120015000700170000000000B195
:101C4C00020F05D202C7021903D702F502000000E9
:101C5C000025059E056305480500000000BD06E94A
:101C6C0005D406D3060D0A0048656C6C6F21006E16
:101C7C0020707265737365643A20003078004241BD
:101C8C00434B535041434520505245535345440018
:101C9C004C534849465420697320005253484946D6
:101CAC00542069732000547279696E6720746F2018
:101CBC0073656E642044454C4554450048616E6420
:101CCC006C696E67205348494654206B6579732EB6
:101CDC002E2E00426F74682053484946542070726F
:101CEC006573736564002072656C6561736564006F
:00000001FF
