:100000000C94CF000C94F7000C94F7000C94F700BC
:100010000C94F7000C94F7000C94F7000C94F70084
:100020000C94F7000C94F7000C94B5040C94240580
:100030000C94F7000C94F7000C94F7000C94F70064
:100040000C94F7000C94F7000C94F7000C94F70054
:100050000C94F7000C94F7000C94F7000C946B04CC
:100060000C94F7000C94F7000C94F7000C94F70034
:100070000C94F7000C94F7000C94F7000C94F70024
:100080000C94F7000C94F7000C94F7000C94F70014
:100090000C94F7000C94F7000C94F7000C94F70004
:1000A0000C94F7000C94F7000C94F7000000000289
:1000B00000090F0000030401000C00000000000014
:1000C0000000000000000000000000080B00020219
:1000D00002000009040000010202000005240010D3
:1000E000010524010101042402060524060001077C
:1000F00005810310004009040100020A0000000706
:1001000005020240000007058302400000040309C5
:100110000412010002EF0201404123368000010178
:1001200002030141726475696E6F204C4C430041BB
:10013000726475696E6F204C656F6E6172646F00DA
:1001400000000000250028002B002E0031000000D8
:100150000000240027002A002D00300004040404BD
:10016000040304050202020204030202020206065C
:100170000606060604040202020404040802011032
:1001800040804010204080408008020401804020D0
:100190001002011080102040402056075109112400
:1001A0001FBECFEFDAE0DEBFCDBF21E0A4E5B1E0B6
:1001B00001C01D92AD3CB207E1F711E0A0E0B1E053
:1001C000ECE2F7E102C005900D92A435B107D9F732
:1001D00010E0CEECD0E004C02197FE010E9491090E
:1001E000CD3CD107C9F70E94A6070C94890B0C944B
:1001F000000090E0FC01E558FE4F2491845A9E4F88
:10020000FC018491882399F090E0880F991FFC01EC
:10021000E25BFE4FA591B491FC01E05CFE4F85913D
:1002200094918FB7F894EC91E22BEC938FBF0895E3
:10023000FC0180916E01882311F13FB7F89482E0B0
:100240008093E9002091F200822F90E018161906A1
:1002500014F481E090E0882339F0289844E6409334
:100260006D014091F1004083222339F02091F2008A
:10027000211103C02BE62093E8003FBF08958FEFC4
:100280009FEF08952FB7F89483E08093E900909151
:10029000E800892F807295FF04C09091F20080E4FD
:1002A000891B2FBF08958091650181110DC082E0E7
:1002B0008093610184E08093620110926401109246
:1002C000630181E08093650181E691E008953FB785
:1002D000F89480915D0190915E01A0915F01B091D1
:1002E000600126B5A89B05C02F3F19F00196A11DFE
:1002F000B11D3FBFBA2FA92F982F8827BC01CD0170
:10030000620F711D811D911D42E0660F771F881FCE
:10031000991F4A95D1F708958F929F92AF92BF92FD
:10032000CF92DF92EF92FF924B015C010E94670136
:100330006B017C010E9467016C197D098E099F0980
:10034000683E734081059105A8F321E0821A910867
:10035000A108B10888EEC80E83E0D81EE11CF11C8C
:1003600081149104A104B10429F7FF90EF90DF906C
:10037000CF90BF90AF909F908F9008950895409137
:100380005601509157012091540130915501421767
:100390005307B4F49091E8009570E1F39091E80070
:1003A00092FD19C08093F100809156019091570100
:1003B00001968F739927892B19F48EEF8093E800AB
:1003C0008091560190915701019690935701809327
:1003D000560181E0089580E00895EF92FF920F9317
:1003E0001F93CF93DF93F82E192FE62E042F81E071
:1003F000860F880F0E94BF0183E00E94BF01CF2DAE
:10040000D12FEC0EFD2EF11CCE15DF05B9F007FF44
:1004100013C0FE0184910E94BF01182F80E00E944A
:10042000BF01812321968111EFCFDF91CF911F91E1
:100430000F91FF90EF9008958881EDCF81E0F5CF87
:10044000DF92EF92FF920F931F93CF93DF93D82EFB
:100450008A01EB017B01E40EF51ECE15DF0559F094
:10046000D7FE12C0FE0184910E94BF012196811126
:10047000F4CF0FEF1FEFC801DF91CF911F910F91C4
:10048000FF90EF90DF9008958881EECF0F931F9338
:10049000CF93DF931F92CDB7DEB782E0898342E42A
:1004A00050E06BEC70E080E80E9420020E94530153
:1004B000DC0112960D911C910115110589F0D801EE
:1004C000ED91FC910280F381E02DBE016F5F7F4FC3
:1004D000C801099597FD04C0F80100851185ECCF8E
:1004E00089810F90DF91CF911F910F9108956150F5
:1004F00030F02091F100FC0120830196F8CF28987C
:1005000084E680936D0108958F929F92AF92BF927F
:10051000CF92DF92EF92FF920F931F93CF93DF93CF
:100520006C017B018A0180910B01882309F45CC076
:1005300080916E01882309F457C080915A0180FF91
:1005400005C08091E00082608093E000E801B12C5A
:100550008AEFA82E93E0892E2AE3922E209711F499
:10056000BB20D9F10E94420181110AC0AA94AA209D
:10057000D9F161E070E080E090E00E948C01EECF64
:100580008C171D0611F00CF08C2F9FB7F8948092F9
:10059000E9002091E80025FD02C09FBFDFCF282F92
:1005A00030E0C21BD30BF701815020F04191409302
:1005B000F100FACFE20EF31EBB2021F09092E8008A
:1005C000B12CEBCF8091E80085FDE7CF9092E80059
:1005D000BB24B394209709F3F3CF5D9884E680930E
:1005E0005901101611063CF081E090E0F60193836A
:1005F000828310E000E0C801DF91CF911F910F913D
:10060000FF90EF90DF90CF90BF90AF909F908F9032
:100610000895CF93DF931F92CDB7DEB76983DC01D6
:10062000ED91FC910280F381E02D41E050E0BE01AC
:100630006F5F7F4F09950F90DF91CF91089583E011
:100640008093E9008091F200882319F08AE3809377
:10065000E80008950E94420190E00895CF93DF934F
:100660001F92CDB7DEB7FC018485958597FD08C044
:100670002FEF3FEF358724870F90DF91CF910895BB
:10068000CE0101960E941801019719F4898190E02A
:10069000F3CF8FEF9FEFF0CF2FB7F89480916F01DA
:1006A00090917001A0917101B09172012FBF809360
:1006B0007B0190937C01A0937D01B0937E0183E741
:1006C00091E00E942E0397FF26C02FB7F8948091E7
:1006D0006F0190917001A0917101B09172012FBFD3
:1006E00040917B0150917C0160917D0170917E0170
:1006F000841B950BA60BB70B4091770150917801A5
:100700006091790170917A0184179507A607B70760
:10071000B0F28FEF9FEF08950F931F93CF93DF9366
:100720001F92CDB7DEB78C01FC018485958597FFBC
:100730000BC0CE0101960E941801019771F48981C6
:1007400090E0F80195878487F801848595850F905E
:10075000DF91CF911F910F9108958FEF9FEFF1CF10
:10076000FC018485958597FD0BC09FB7F89482E0C6
:100770008093E9008091F2009FBF90E00196089578
:100780009FB7F89482E08093E9008091F2009FBFC8
:1007900090E00895282F30E0F901E455FF4F94913F
:1007A000F901E558FE4F8491245A3E4FF9012491F6
:1007B000222309F430C09923E9F091509F30D0F4FE
:1007C000E92FF0E0EA51FC4F0C949109140418044D
:1007D000F5030C041004FA03FA03FA031B042104C2
:1007E000250429042F04FA033304909180009F7795
:1007F00090938000E22FF0E0EE0FFF1FE05CFE4FD1
:10080000A591B4919FB7F894EC91611132C0809595
:100810008E238C939FBF0895909180009F7DE8CF99
:1008200090918000977FE4CF94B59F7794BDE2CFFD
:1008300094B59F7DFBCF909190009F77909390000F
:10084000D9CF909190009F7DF9CF90919000977FA4
:10085000F5CF9091C0009F779093C000CBCF90913F
:10086000C0009F7DF9CF9091C200977F9093C20006
:10087000C1CF8E2BCECF42E050E06FE371E083E733
:1008800091E00C9484020F931F93CF93DF93EC01BC
:1008900088819981009759F02A813B812617370773
:1008A00030F081E0DF91CF911F910F9108958B017E
:1008B0006F5F7F4F0E94BC0A009759F0998388832D
:1008C0001B830A832C813D81232B59F7FC01108265
:1008D000E8CF80E0E7CF1F920F920FB60F9211245E
:1008E0002F933F938F939F93AF93BF9380916F010B
:1008F00090917001A0917101B091720130915C01F1
:1009000023E0230F2D3758F50196A11DB11D20932B
:100910005C0180936F0190937001A0937101B0937B
:10092000720180915D0190915E01A0915F01B09193
:1009300060010196A11DB11D80935D0190935E0140
:10094000A0935F01B0936001BF91AF919F918F9190
:100950003F912F910F900FBE0F901F90189526E892
:10096000230F0296A11DB11DD2CF1F920F920FB679
:100970000F9211248F939F938091E1009091E10059
:10098000937F9093E10083FF0FC01092E90091E004
:100990009093EB001092EC0092E39093ED00109294
:1009A0006E0198E09093F00082FF22C093E0909354
:1009B000E9009091F200992319F09AE39093E800EE
:1009C00090915901992341F0909159019150909340
:1009D0005901911101C05D9A90916D01992341F0E7
:1009E00090916D01915090936D01911101C0289AE1
:1009F00084FF18C08091E2008E7E81608093E200C7
:100A00008091E1008F7E8093E10080915A018E7E7B
:100A1000806180935A019F918F910F900FBE0F902C
:100A20001F90189580FFF7CF8091E2008E7E806145
:100A30008093E2008091E1008E7E8093E1008091BE
:100A40005A018E7E8160E5CF1F920F920FB60F92F2
:100A50001124CF92DF92EF92FF920F931F932F9367
:100A60003F934F935F936F937F938F939F93AF9336
:100A7000BF93EF93FF93CF93DF93CDB7DEB76C9720
:100A8000DEBFCDBF1092E9008091E80083FF25C052
:100A900068E0CE0145960E94770282EF8093E800DD
:100AA0008D8987FF39C09091E80090FFFCCF982F87
:100AB000907609F034C19E894F89588D2F89F88C22
:100AC000911131C0803861F580915B018093F10014
:100AD0001092F1008EEF8093E8006C960FB6F894B8
:100AE000DEBF0FBECDBFDF91CF91FF91EF91BF91E0
:100AF000AF919F918F917F916F915F914F913F91B6
:100B00002F911F910F91FF90EF90DF90CF900F905A
:100B10000FBE0F901F9018959EEF9093E800C7CFDF
:100B20001092F100D5CF913059F48111D3CF4130DB
:100B3000510581F680915B018D7F80935B01CACF67
:100B4000933049F48111C6CF4130510519F6809197
:100B50005B018260F2CF953041F48091E80080FF24
:100B6000FCCF20682093E300B5CF963009F0A9C0F0
:100B70000B8D1C8D22E01092E9001092570110920B
:100B80005601F2122EC010925501109254010E948B
:100B900046021F8299E09983FA8291E09E8390EA4F
:100BA00098879AEF99872091560130915701275FD6
:100BB0003F4F3C832B838D831092E90010925701A5
:100BC00010925601109355010093540149E050E0F2
:100BD000BE016F5F7F4F80E00E9420020E944602AC
:100BE00079CF10935501009354010E945301DC0109
:100BF00012960D911C910115110509F451C1D801EE
:100C0000ED91FC910480F581E02DBE016B5E7F4F7C
:100C1000C8010995009709F03EC1F80100851185CA
:100C2000EACFF3E0FF120EC08F89882309F440C099
:100C3000823061F440E860E18FE291E00E94ED01D2
:100C4000811148CF81E28093EB0047CF813029F4B6
:100C500040E86BE083E291E0F1CF833099F70E94A6
:100C60005301DC011296ED90FC908E010F5F1F4F37
:100C70006801E114F10479F0D701ED91FC9106804F
:100C8000F781E02DB801C7010995080F111DF70183
:100C9000E084F184EECFD8011C92F601019000208F
:100CA000E9F73197BF016C197D0940E0C601C6CF55
:100CB0006DE071E0FB01449150E080E80E94200269
:100CC00009CF973009F4BECF983021F481E08093AA
:100CD000F10000CF993009F0FDCE837009F0B2CF5A
:100CE000E3E1F1E081E031E096E32191222371F02C
:100CF0008093E9003093EB00DF0111972C91209352
:100D0000EC009093ED008F5F873079F78EE780934A
:100D1000EA001092EA008F8980936E01DBCE8B8D02
:100D20009C8D1092E90010925701109256019093F9
:100D3000550180935401898D811192C08E899D89BE
:100D4000913A49F4813209F07DCF47E050E064E008
:100D500071E080E0B3CF913209F074CF833269F44F
:100D60008F89988DB0E0A0E08093000190930101FD
:100D7000A0930201B0930301ADCE803269F480915B
:100D8000E80082FFFCCF67E084E091E00E947702F8
:100D90008BEF8093E8009ECE823209F09BCE8F8944
:100DA00080930B01EEEFFFE7859194918B3F9C4D73
:100DB00051F1E0E0F8E08091040190910501A091EB
:100DC0000601B0910701803B9440A105B105F1F403
:100DD00080910B0180FD1AC0EE3F8AE0F80789F58B
:100DE00087E797E791838083809160008093580123
:100DF00088E19BE00FB6F894A895809360000FBE41
:100E00009093600067CEEEEFFAE0D5CF80819181BC
:100E10008737974709F05ECEA8958091600088617A
:100E2000809360008091580180936000EE3F2AE03B
:100E3000F20789F08091FE0A9091FF0A91838083E6
:100E400049CE808191818737980751F29093FF0AAC
:100E50008093FE0AC5CF1092FF0A1092FE0A3ACE86
:100E60000E945301DC0112960D911C910115110590
:100E700009F4E8CED801ED91FC910190F081E02DCC
:100E8000BE016B5E7F4FC8010995811123CEF80129
:100E900000851185EBCF181619060CF41BCED2CEA7
:100EA000F1E0FF12BECE61E171E004CF1092760155
:100EB0001092750188EE93E0A0E0B0E08093770196
:100EC00090937801A0937901B0937A0181E391E046
:100ED00090937401809373018FEF9FEF9093800143
:100EE00080937F011092C4011092C3011092C60139
:100EF0001092C5011092C8011092C70170E060E025
:100F000083EC91E00E9443042091C3013091C4011D
:100F1000811113C02115310519F0C9010E94330A4E
:100F20001092C4011092C3011092C8011092C7011F
:100F30001092C6011092C50108951092C801109236
:100F4000C70161E471E0C9010C94820BCF93DF9378
:100F5000CDB7DEB728970FB6F894DEBF0FBECDBF72
:100F6000789484B5826084BD84B5816084BD85B584
:100F7000826085BD85B5816085BD80916E00816090
:100F800080936E0010928100809181008260809336
:100F90008100809181008160809381008091800038
:100FA00081608093800080919100826080939100A5
:100FB0008091910081608093910080919000816088
:100FC000809390008091C10084608093C1008091E3
:100FD000C10082608093C1008091C10081608093D4
:100FE000C1008091C30081608093C3008091C000E4
:100FF00082608093C0008091C20081608093C200B3
:1010000080917A00846080937A0080917A00826077
:1010100080937A0080917A00816080937A00809139
:101020007A00806880937A0010926E0110925B01C2
:1010300010925A018091D70081608093D70080EA96
:101040008093D80089B5806189BD89B5826089BDEA
:1010500009B400FEFDCF61E070E080E090E00E9406
:101060008C018091D8008F7C80618093D800809122
:10107000E000807F8093E0008091E1008E7E80938D
:10108000E1008DE08093E200559A209A60E470E0E0
:1010900083EC91E00E94430409E111E0F801F19032
:1010A0008F018F2D0E94F90060E08F2D0E94CA03EE
:1010B000F1E00D321F0791F78FEF9FEF90938001C2
:1010C00080937F0110910B016AE070E080E090E076
:1010D0000E948C011123B1F38FEF9FEFAFEFBFEEB2
:1010E0008093770190937801A0937901B0937A016E
:1010F0008BE00E94F90061E08BE00E94CA0380E06F
:10110000E82E80E0F82E1A8219821C821B821E8231
:101110001D8270E060E0CE0101960E9443042981A7
:101120003A8181112EC02115310519F0C9010E94A3
:10113000330A1A8219821E821D821C821B820E941F
:101140004C0397FD26C08A30910519F18F831886CC
:101150000D811E810F5F1F4FB801CE0101960E94C5
:101160004304882361F329813A818D819E81BE01E8
:10117000695F7F4F820F931F0E94820B1E830D8336
:10118000DECF1E821D8261E471E0C9010E94820BE4
:10119000D6CF8091C3019091C401009709F454C047
:1011A00069817A816115710509F44CC04091C501CE
:1011B0005091C6012D813E814217530708F442C069
:1011C0000E94820B8D819E819093C8018093C701FC
:1011D0001E821D8289819A81009711F00E94330A34
:1011E0008091C7019091C801449709F04FC010E069
:1011F00000E08091C7019091C80108171907D8F540
:101200008091C3019091C4010097A9F1800F911FB3
:10121000FC01808160E0803319F0813361F561E089
:10122000F801E75EFE4F80810E94CA030F5F1F4FE7
:1012300004311105F1F6E114F10409F464CF0E94C0
:10124000000061CF0E94330A89819A819093C40182
:101250008093C3018B819C819093C6018093C501CB
:101260008D819E819093C8018093C7011A82198253
:101270001C821B82ADCF4BE050E062E471E083E75B
:1012800091E00E9484020E943B04D0CF45E050E0F0
:101290006EE471E083E791E00E9484020E943B04C7
:1012A000CACF8091C3019091C401009711F00C94B2
:1012B000330A08952F923F924F925F926F927F92DE
:1012C0008F929F92AF92BF92CF92DF92EF92FF9256
:1012D0000F931F93CF93DF93CDB7DEB7CA1BDB0B02
:1012E0000FB6F894DEBF0FBECDBF09942A883988A7
:1012F00048885F846E847D848C849B84AA84B984AE
:10130000C884DF80EE80FD800C811B81AA81B981B9
:10131000CE0FD11D0FB6F894DEBF0FBECDBFED01CD
:101320000895EE0FFF1F0590F491E02D09940F939F
:101330001F93CF93DF938230910510F482E090E009
:10134000E091CB01F091CC0130E020E0B0E0A0E0F2
:10135000309799F42115310509F44AC0281B390B3F
:1013600024303105D8F58A819B816115710589F199
:10137000FB0193838283FE0111C040815181028170
:10138000138148175907E0F04817590799F4109747
:1013900061F012960C93129713961C933296CF011C
:1013A000DF91CF911F910F9108950093CB0110937E
:1013B000CC01F4CF2115310551F04217530738F015
:1013C000A901DB019A01BD01DF01F801C1CFEF01E5
:1013D000F9CF9093CC018093CB01CDCFFE01E20FEA
:1013E000F31F819391932250310939832883D7CFFA
:1013F0002091C9013091CA01232B41F420910E01A3
:1014000030910F013093CA012093C90120910C0142
:1014100030910D012115310541F42DB73EB74091B2
:10142000100150911101241B350BE091C901F0917D
:10143000CA01E217F307A0F42E1B3F0B2817390748
:1014400078F0AC014E5F5F4F2417350748F04E0F20
:101450005F1F5093CA014093C901819391939FCF1D
:10146000F0E0E0E09CCFCF93DF930097E9F0FC0140
:10147000329713821282A091CB01B091CC01ED0181
:1014800030E020E01097A1F420813181820F931F7A
:101490002091C9013091CA012817390709F061C0AC
:1014A000F093CA01E093C901DF91CF910895EA0159
:1014B000CE17DF07E8F54A815B819E014115510592
:1014C000B1F7E901FB83EA8349915991C40FD51F14
:1014D000EC17FD0761F4808191810296840F951FBE
:1014E000E90199838883828193819B838A83F0E0D9
:1014F000E0E012968D919C9113970097B9F52D918C
:101500003C911197CD010296820F931F2091C90142
:101510003091CA012817390739F6309751F51092E2
:10152000CC011092CB01B093CA01A093C901BCCFEA
:10153000D383C28340815181840F951FC817D90777
:1015400061F44E5F5F4F88819981480F591F518325
:1015500040838A819B81938382832115310509F021
:10156000B0CFF093CC01E093CB019ECFFD01DC0125
:10157000C0CF13821282D7CFB0E0A0E0E2ECFAE055
:101580000C945C098C01009751F4CB010E949709DF
:101590008C01C801CDB7DEB7E0E10C947809FC01FD
:1015A000E60FF71F9C0122503109E217F30708F4F8
:1015B0009DC0D901CD91DC911197C617D70798F03E
:1015C000C530D10530F3CE0104978617970708F38D
:1015D000C61BD70B2297C193D1936D937C93CF01F8
:1015E0000E94330AD6CF5B01AC1ABD0A4C018C0EA7
:1015F0009D1EA091CB01B091CC01512C412CF12C1E
:10160000E12C109731F58091C9019091CA0188159C
:10161000990509F05CC04616570608F058C080913D
:101620000C0190910D01009741F48DB79EB7409148
:10163000100150911101841B950BE817F90708F070
:1016400055C0F093CA01E093C901F9017183608329
:10165000A0CF8D919C91119712966C901297139632
:101660007C901397A815B90559F56C0142E0C40E9A
:10167000D11CCA14DB0420F1AC014A195B09DA0160
:101680001296159780F06282738251834083D9014C
:101690006D937C93E114F10471F0D7011396FC93E0
:1016A000EE93129776CF22968C0F9D1FF9019183AE
:1016B0008083F301EFCFF093CC01E093CB0169CFAE
:1016C0004816590608F42C017D01D3019ACFCB01AD
:1016D0000E9497097C01009749F0AE01B8010E9471
:1016E000790BC8010E94330A870153CF10E000E054
:1016F00050CFFB01DC0102C001900D9241505040DF
:10170000D8F70895FB01DC0101900D920020E1F76C
:10171000089510E0CEECD0E004C0FE010E949109D3
:0C1720002196CF3CD107C9F7F894FFCF09
:10172C00FFFFFFFF00E10000000000000000CD0102
:10173C00800000C18081000000030200011E040C27
:10174C000608090A050D12131415071716000000D8
:10175C0000090384022A031F03B0032E038C030D1C
:10176C000A004F6E6C792030206F72203100455288
:04177C00524F520076
:00000001FF
